:020000020000FC
:040000000C9422003A
:040010000C946E00DE
:100040000C9485000FEF0DBF18E01EBF40792430DF
:1000500019120278001008034621060EF0E0ECE4C5
:100060000FE70AB90CE004B90FE007B903E005B9DE
:1000700001E00093680001E000936E0003E000934C
:100080006B000E946900789400E00093C10000E0DA
:1000900010E020E030E040E050E060E070E0F0E0B0
:1000A000ECE4E60F2A9A44914BB90E9465002A9825
:1000B0000E946500F0E0ECE4E20F2B9A44914BB90A
:1000C0000E9465002B9838B9EACF0FEF0A95F1F737
:1000D000089505E005BD04E606BD08950F930FB72A
:1000E0000F93139511FF0CC0112750FF01C004C0DE
:1000F000339534FD332704C03A9537FD332700C0CC
:1001000053B10F910FBF0F9118950F930FB70F9326
:1001100004E606BD7395743659F4772763956A3003
:1001200009F006C066272395263009F001C0222772
:080130000F910FBF0F9118950C
:00000001FF
