:020000020000FC
:100000000C9406000C9424000C9432000FEF0DBFEA
:1000100018E01EBF4079243019120278001008033E
:100020004621060E00E00AB90FE007B90CE00BB953
:1000300005E000936900E89AE99A10E0789400E0FE
:100040000093C10018B9FECF0F930FB70F9313950C
:1000500011FF04C0339534FD332711270F910FBFD3
:100060000F9118950F930FB70F93139511FF04C0BD
:100070003A9537FD332711270F910FBF0F91189530
:00000001FF
